:020000040800F2
:10000000A008002061020008690200086B020008D5
:100010006D0200086F020008710200080000000075
:100020000000000000000000000000007302000853
:10003000750200080000000077020008790200083D
:100040007B0200087B0200087B0200087B0200089C
:100050007B0200087B0200087B0200087B0200088C
:100060007B0200087B0200087B0200087B0200087C
:100070007B0200087B0200087B0200087B0200086C
:100080007B0200087B0200087B0200087B0200085C
:100090007B0200087B0200087B0200087B0200084C
:1000A0007B0200087B0200087B0200087B0200083C
:1000B0001924000831240008652400087B02000888
:1000C0007B0200087B0200087B0200087B0200081C
:1000D0007B0200084F7600087B02000875260008A6
:1000E0000D6B00087B0200087B0200087B02000801
:1000F0007B0200087B0200087B0200087B020008EC
:100100007B0200087B020008772400087B020008BD
:100110007B0200087B0200087B0200087B020008CB
:100120007B0200087B0200087B0200087B020008BB
:10013000DFF80CD007F022FF0048004793010008C9
:10014000A008002010B501F049FE01F063FE4FF455
:10015000165007F025FA4FF4165002F031FA00213C
:1001600041F61F4001F0CEFE02F0D6FA06F0D6FEB0
:1001700002F0BEFB03F00DF803F01FF801F06EFF74
:1001800001F0DCFF02F044F802F0AAF806F09CFE51
:1001900010BDFFF7D7FF05E006F0B8FC4FF47A700A
:1001A00007F0D2F9F8E7FFF7CDFF49E025480068EE
:1001B000002841D000BF04B13DE00124214801687E
:1001C00021A007F06DFF1F480068112831D2DFE839
:1001D00000F030090A0B0C10111213141516171821
:1001E00023242F0025E024E023E000201A49087092
:1001F0001FE01EE01DE01CE01BE01AE019E018E023
:1002000017E044B115480068192804DA134800685B
:10021000401D124908600CE00BE044B10F48006833
:10022000052804DD0D480068401F0C49086000E007
:1002300000BF00BF00BF00E000240A2007F084F9DF
:10024000B4E70000D4000020505332204B657920E1
:100250003D20256400000000A30100202C000020A8
:100260000648804706480047FEE7FEE7FEE7FEE750
:10027000FEE7FEE7FEE7FEE7FEE7FEE7DD1C00081F
:100280003101000831490143314A1160704770B5AE
:10029000002100230F22C4780CB32D4C246804F4F1
:1002A000E064C4F5E064210AC1F10403CA40447863
:1002B00004FA03F18478144021430901254C06789F
:1002C000A155047804F01F050124AC4005786D1198
:1002D0004FF0E02606EB8505C5F8004109E00478FB
:1002E00004F01F050124AC401B4D0678761145F83B
:1002F000264070BD194A0A400243154B1B1F1A6065
:10030000704739B1124A121D12680243104B1B1D6F
:100310001A6006E00E4A121D126882430C4B1B1D28
:100320001A607047042808D14FF0E021096941F0B4
:1003300004014FF0E022116107E04FF0E02109696C
:1003400021F004014FF0E022116170470000FA052E
:100350000CED00E000E400E080E100E080FFFF1F22
:1003600010B50446CA48844208D10121042000F097
:1003700025FB0021042000F021FB46E0C548844213
:1003800008D10121082000F019FB0021082000F00D
:1003900015FB3AE0C048844208D10121102000F04A
:1003A0000DFB0021102000F009FB2EE0BB48844229
:1003B00008D10121202000F001FB0021202000F0C5
:1003C000FDFA22E0B648844208D10121402000F025
:1003D000F5FA0021402000F0F1FA16E0B14884421D
:1003E00008D10121802000F0E9FA0021802000F0EE
:1003F000E5FA0AE0AC48844207D10121801500F0FB
:10040000DDFA0021A01500F0D9FA10BD10B50121C8
:10041000084600F0D3FA0021012000F0CFFA10BD09
:100420002DE9F0410246002500260020002300248B
:10043000002791F803C00CF00F0591F803C01CF0E1
:10044000100F03D091F802C04CEA0505B1F800C0C6
:100450001CF0FF0F31D0146800202BE04FF0010C8E
:100460000CFA00F3B1F800C00CEA03069E4220D15A
:1004700083004FF00F0C0CFA03F7BC4305FA03FCA2
:100480004CEA040491F803C0BCF1280F06D14FF0E8
:10049000010C0CFA00FCC2F814C00AE091F803C089
:1004A000BCF1480F05D14FF0010C0CFA00FCC2F86A
:1004B00010C0401C0828D1D31460B1F800C0BCF1B2
:1004C000FF0F34DD546800202EE000F1080C4FF0DF
:1004D000010808FA0CF3B1F800C00CEA03069E42CA
:1004E00021D183004FF00F0C0CFA03F7BC4305FA3F
:1004F00003FC4CEA040491F803C0BCF1280F05D1B9
:1005000000F1080C08FA0CF8C2F8148091F803C046
:10051000BCF1480F07D100F1080C4FF0010808FAB0
:100520000CF8C2F81080401C0828CED35460BDE8F7
:10053000F0814FF6FF710180022181700421C170AA
:1005400070470246002093680B4201D0012000E072
:10055000002070470146886880B27047024600203C
:10056000D3680B4201D0012000E000207047014613
:10057000C86880B2704701617047416170470AB135
:10058000016100E041617047C16070474FF4803203
:100590000A43826181618261826982697047024691
:1005A0000020424B18684FF68073184040EA021052
:1005B00008433E4B186070473D49C8617047F0B52D
:1005C0000A46002300240021002500F00046B6F171
:1005D000004F02D1354EF16901E0344E7168C0F32D
:1005E000034583B200F44016B6F5401F08D121F050
:1005F00070612E4E766826F070662C4F7E6012E099
:1006000000F48016B6F5801F06D1032606FA05F41D
:10061000A14341F0706106E0460D360103FA06F68B
:10062000B14341F0706122B1460D360103FA06F67E
:10063000314300F00046B6F1004F02D11B4EF1618C
:1006400001E01A4E7160F0BD30B500228B071C0F1F
:100650000F2303FA04F2154B08338C1053F824309F
:100660009343124C08348D1044F8253023468C10E7
:1006700053F824308C07240F00FA04F423430B4C66
:1006800008348D1044F8253030BD0A4908607047A1
:1006900000080140000C014000100140001401401E
:1006A00000180140001C01400020014000000140F2
:1006B00000002042DC002042DC48006840F00100DD
:1006C000DA49086008464068D9490840D749486077
:1006D00008460068D7490840D449086008460068C1
:1006E00020F4802008600846406820F4FE0048603E
:1006F0004FF41F0088607047CC49096821F48031AD
:10070000CA4A11601146096821F480211160B0F5D0
:10071000803F03D0B0F5802F0ED106E0C3490968B1
:1007200041F48031C14A116007E0C049096841F4D1
:10073000A021BE4A116000E000BF00BF704710B5A5
:1007400001460022002300204A11012A02D1B74CA1
:10075000236806E0022A02D1B44C236A01E0B34CBC
:10076000636A01F01F02012494401C4201D0012061
:1007700000E0002010BD70B500240025002600BF59
:100780003120FFF7DCFF0646641CB4F5A06F01D0F2
:10079000002EF5D03120FFF7D2FF08B1012500E08F
:1007A0000025284670BD01460020A04A106820F0B0
:1007B000F80040EAC100106070479F490860704728
:1007C00002460020994B586820F47C1042EA01034D
:1007D0001843964B58607047974908667047014622
:1007E0000020924A506820F0030008435060704790
:1007F0008E48406800F00C007047014600208B4A8C
:10080000506820F0F0000843506070470146002017
:10081000864A506820F4E060084350607047014603
:100820000020824A506820F4605040EAC1005060C5
:10083000704729B17D4A527A02437C4B5A7206E0D6
:100840007A4A527AC343DBB21A40784B5A727047E5
:100850007A490860704701460020744A506820F4C5
:1008600040400843506070470021754A11706F4A3C
:1008700082F82010012802D0042808D103E00121C9
:100880006F4A117004E005216D4A117000E000BF4D
:1008900000BF70476B49086070476449096A0143AB
:1008A000624A11627047674944390860704730B541
:1008B00000210022002400235C4D6D6805F00C012E
:1008C00021B1042905D0082923D105E05E4D05603A
:1008D00022E05D4D05601FE0544D6D6805F4701217
:1008E000524D6D6805F48034022505EB92421CB927
:1008F000564D554305600BE04C4D6D6815F4003FB7
:1009000003D0524D5543056002E04F4D55430560FD
:1009100002E04D4D056000BF00BF444D6D6805F01D
:10092000F00109094A4D6B5C0568DD4045603F4DAB
:100930006D6805F4E061090A454D6B5C4568DD4072
:1009400085603A4D6D6805F46051C90A404D6B5C95
:100950004568DD40C560354D6D6805F44041890B43
:100960003C4D6B5CC568B5FBF3F5056130BD29B145
:100970002E4A526902432D4B5A6104E02B4A5269B8
:1009800082432A4B5A61704729B1284A926902432F
:10099000264B9A6104E0254A92698243234B9A616F
:1009A000704729B1214AD2690243204BDA6104E041
:1009B0001E4AD26982431D4BDA61704729B11B4A36
:1009C000D2680243194BDA6004E0184AD2688243C5
:1009D000164BDA60704729B1144A12690243134B6F
:1009E0001A6104E0114A12698243104B1A61704780
:1009F00014494039086070470F49C86470470B4973
:100A0000C87170470948406A40F0807007494862E1
:100A1000704701460020054A92680A4201D0012031
:100A200000E00020704701498872704700100240C2
:100A30000000FFF8FFFFF6FE00004242D8004242ED
:100A4000201002408004424200127A0000093D005A
:100A5000DC000020EC00002010B50446FE48844273
:100A600008D10121C014FFF7A9FF0021E014FFF70E
:100A7000A5FFC4E0B4F1804F08D101210846FFF77B
:100A8000AAFF00210120FFF7A6FFB8E0F348844247
:100A900008D101210220FFF79EFF00210220FFF76D
:100AA0009AFFACE0EE48844208D101210420FFF710
:100AB00092FF00210420FFF78EFFA0E0E948844266
:100AC00008D101210820FFF786FF00210820FFF749
:100AD00082FF94E0E448844208D101211020FFF70E
:100AE0007AFF00211020FFF776FF88E0DF4884427C
:100AF00008D101212020FFF76EFF00212020FFF701
:100B00006AFF7CE0DA48844208D101214014FFF7F3
:100B100055FF00216014FFF751FF70E0D548844273
:100B200009D10121C804FFF749FF00214FF400203B
:100B3000FFF744FF63E0D048844209D10121080552
:100B4000FFF73CFF00214FF48010FFF737FF56E01E
:100B5000CA48844209D101214805FFF72FFF00212F
:100B60004FF40010FFF72AFF49E0C548844208D13E
:100B700001214020FFF72FFF00214020FFF72BFF2E
:100B80003DE0C048844208D101218020FFF723FFC7
:100B900000218020FFF71FFF31E0BB48844208D1CD
:100BA00001218015FFF717FF0021A015FFF713FFA4
:100BB00025E0B648844209D101210804FFF7FEFE72
:100BC00000214FF48030FFF7F9FE18E0B04884426E
:100BD00009D101214804FFF7F1FE00214FF4003054
:100BE000FFF7ECFE0BE0AB48844208D101218804FA
:100BF000FFF7E4FE00214FF48020FFF7DFFE10BD79
:100C000000220288944B98420ED0994B98420BD008
:100C1000B0F1804F08D0914B984205D0904B98424C
:100C200002D0904B984204D14FF68F731A404B88F4
:100C30001A438D4B984207D08C4B984204D04FF604
:100C4000FF431A40CB881A4302808B8883850B8828
:100C50000385814B98420BD0854B984208D08B4B33
:100C6000984205D08A4B984202D08A4B984201D1D3
:100C70000B7A038601238382704770B5002400221B
:100C80000023058C4FF6FE7635400584028C838860
:100C9000048B4FF68F752C40B51E2C400D882C43CD
:100CA000751E2A400D892A434D882A436A4DA84261
:100CB0000BD06F4DA84208D0744DA84205D0744D9A
:100CC000A84202D0734DA84213D14FF6F7752A40BF
:100CD0004D892A434FF6FB752A408D882A434FF6EB
:100CE000FF652B404FF6FF552B408D892B43CD8957
:100CF0002B4383800483CD888586028470BD70B5C4
:100D0000002400220023058C4FF6EF763540058441
:100D1000028C8388048B48F6FF752C404FF6FF4504
:100D20002C400D882D0644EA15444FF6DF752A4005
:100D30000D892D0542EA15424D882D0542EA1542DE
:100D4000454DA84202D04A4DA8421BD14FF67F75AF
:100D50002A404D892D0542EA15424FF6BF752A40BB
:100D60008D882D0542EA15424FF6FF352B404FF294
:100D7000FF752B408D89AD0443EA1543CD89AD0441
:100D800043EA154383800483CD880587028470BDC0
:100D900070B5002400220023058C4FF6FF66354015
:100DA0000584028C8388848B4FF68F752C404FF618
:100DB000FC752C400D882C434FF6FF552A400D89B9
:100DC0002D0642EA15424D882D0642EA1542224D73
:100DD000A84202D0264DA8421BD14FF2FF752A40EF
:100DE0004D892D0642EA15424FF6FF352A408D887F
:100DF0002D0642EA15424EF6FF752B404DF6FF7563
:100E00002B408D892D0543EA1543CD892D0543EAF5
:100E1000154383808483CD888587028470BD70B537
:100E2000002200230024058C4EF6FF763540058411
:100E3000038C8488828B48F6FF752A404FF6FF4565
:100E40002A400D882D0642EA15424DF6FF752B40CB
:100E50000D892D0720E00000002C01400004004017
:100E600000080040000C004000100040001400404A
:100E700000340140004C014000500140005401404A
:100E800000180040001C00400020004000400140CD
:100E9000004401400048014043EA15434D882D07B6
:100EA00043EA1543F84DA84202D0F84DA84206D1B6
:100EB0004BF6FF752C408D89AD0544EA15448480BE
:100EC0008283CD88A0F84050038470BD828B4FF29E
:100ED000FF331A408283828B0B0642EA13428283DD
:100EE0007047F0B50C461546002200210026078CFD
:100EF0004EF6FF7C07EA0C070784828B018C2707DC
:100F00003E0C40F6FF473A402F0642EA17421F07C1
:100F100042EA1742DC4FB8420ED0DC4FB8420BD049
:100F2000B0F1804F08D0DA4FB84205D0D94FB8425F
:100F300002D0D94FB84206D14DF6FF77394046F47A
:100F40008057394305E047F6FF57394044F480574E
:100F5000394382830184F0BD828B4FF6F3731A40CC
:100F60008283828B0A4382837047F0B50C46154614
:100F7000002200210026078C4FF6FF6C07EA0C07C1
:100F80000784828B018C27063E0C4FF60C773A4083
:100F90001F0545EA17473A43BB4FB8420ED0BB4F37
:100FA000B8420BD0B0F1804F08D0B94FB84205D04D
:100FB000B84FB84202D0B84FB84206D14FF6FF57EB
:100FC000394046F48077394305E04FF2FF57394006
:100FD00044F48077394382830184F0BD028B4FF261
:100FE000FF331A400283028B0B0642EA134202834C
:100FF0007047F0B50C461546002200210026078CEC
:101000004FF6EF7C07EA0C070784028B018C27055B
:101010003E0C40F6FF473A401F0742EA17422F06B0
:1010200042EA1742984FB8420ED0984FB8420BD0C0
:10103000B0F1804F08D0964FB84205D0954FB842D6
:1010400002D0954FB84206D14FF6DF77394046F0CF
:101050001007394305E04FF65F77394044F0100739
:10106000394302830184F0BD028B4FF6F3731A40BB
:101070000283028B0A4302837047F0B50C46154683
:1010800000220021068C4FF6FE773E400684028B3C
:10109000018C4FF60C7632401E0545EA1646324367
:1010A000794EB0420ED0794EB0420BD0B0F1804FA5
:1010B00008D0774EB04205D0764EB04202D0764E80
:1010C000B04206D14FF6FD76314044F0010631437F
:1010D00005E04FF6F576314044F0010631430283D6
:1010E0000184F0BD70B505460C46674885420ED0B8
:1010F000664885420BD0B5F1804F08D064488542E0
:1011000005D06448854202D06348854200D100E0A2
:1011100000BF208850B92389A28861882846FFF73C
:10112000ACFFE1882846FFF79FFF25E020880428D0
:101130000AD12389A28861882846FFF75AFFE188EF
:101140002846FFF74BFF17E0208808280AD123899B
:10115000A28861882846FFF708FFE1882846FFF744
:10116000FBFE09E02389A28861882846FFF7B9FEC3
:10117000E1882846FFF7AAFE70BD2DE9F04105463B
:101180000C4600260127608808B9022600E00026E8
:10119000A088012801D1022700E001272088A0B9FA
:1011A0002389A28861882846FFF767FFE1882846DF
:1011B000FFF75AFF23893A4631462846FFF719FFC1
:1011C000E1882846FFF70AFF13E02389A288618897
:1011D0002846FFF70EFFE1882846FFF7FFFE238928
:1011E0003A4631462846FFF748FFE1882846FFF790
:1011F0003BFFBDE8F0810A884B881A438B881A436D
:10120000CB881A430B891A434B891A438B891A439B
:10121000A0F8442070474FF6FF71818000210180C3
:10122000C18041800172704700210180418081802E
:10123000C180018141818181C1817047002101808C
:101240004180012181800021C180018170470021FE
:10125000018041808180C18001814181818170470D
:1012600021B1028842F00102028004E002884FF6B8
:10127000FE731A400280704781B1B0F8442042F4F6
:101280000042A0F844200FE0002C0140003401404F
:101290000004004000080040000C0040B0F844206A
:1012A000C2F30E02A0F84420704710B51AB183892A
:1012B0000B43838104E08389CC43A4B22340838120
:1012C00010BD8182704741EA0203A0F848307047A0
:1012D00010B51AB183890B43838104E08389CC4321
:1012E000A4B22340838110BD01894FF6F8721140EA
:1012F000018170470A46002101894FF68F7319401A
:1013000011430181704730B504460D4629462046F9
:10131000FFF7F0FF208940F00700208130BD2DE964
:10132000F04104460D4616461F46602D06D13B4649
:10133000012231462046FFF75CFE05E03B460122D4
:1013400031462046FFF799FE29462046FFF7D2FF97
:10135000208940F007002081BDE8F08130B50C46BF
:1013600000210189C9B21D0642EA154525432943DA
:10137000018130BD2DE9F04105460E4617469846DD
:10138000002443463A4631462846FFF7E7FF2C89BA
:101390004FF6F870044044F007044FF68F70044095
:1013A00044F070042C81BDE8F081F0B504460D4690
:1013B00016461F463B46324629462046FFF7CEFFDB
:1013C000208940F480402081F0BD018582827047F1
:1013D0000A46002101884FF68F731940114301809E
:1013E0007047F0B50C4615461E460021002200232A
:1013F0000189028B038C4FF6F877394021434FF671
:10140000FC473A4040F201173A434FF6DD773B4044
:10141000370545EA17473B43018102830384F0BD4A
:101420000A460021018B4FF68F7319401143018347
:1014300070470A460021018B48F6FF7319401306D6
:1014400041EA1341018370470A460021818B4FF620
:101450008F7319401143818370470A460021818BA5
:1014600048F6FF731940130641EA13418183704720
:1014700021B1028842F08002028004E002884FF627
:101480007F731A400280704721B1828842F00402C3
:10149000828004E082884FF6FB731A408280704796
:1014A00021B1828842F00802828004E082884FF6EF
:1014B000F7731A408280704721B1828842F001029E
:1014C000828004E082884FF6FE731A408280704763
:1014D0000A460021018B4FF6F7731940114301832F
:1014E00070470A460021018B4FF2FF731940130623
:1014F00041EA1341018370470A460021818B4FF670
:10150000F77319401143818370470A460021818B8C
:101510004FF2FF731940130641EA1341818370476C
:101520000A460021018B4FF6FB73194011430183DA
:1015300070470A460021018B4FF6FF33194013060E
:1015400041EA1341018370470A460021818B4FF61F
:10155000FB7319401143818370470A460021818B38
:101560004FF6FF331940130641EA13418183704758
:101570000A460021018B4FF67F7319401143018306
:1015800070470A460021018BC1F30E01130641EAA0
:101590001341018370470A460021818B4FF67F7308
:1015A00019401143818370470A460021818BC1F3A2
:1015B0000E01130641EA1341818370470A46002158
:1015C000018C4FF6FD7319401143018470470A46A0
:1015D0000021018C4FF6F7731940114301847047C5
:1015E0000A460021018C4FF6DF731940130541EACA
:1015F0001341018470470A460021018C4FF67F7326
:101600001940130541EA1341018470470A4600213D
:10161000018C4FF6FF531940130641EA1341018430
:1016200070470A460021018C4FF2FF7319401306E0
:1016300041EA1341018470470A460021018C4DF6AE
:10164000FF731940130741EA13410184704730B515
:10165000002301248C40A3B2048CDD43ADB22C40A6
:101660000484048C02FA01F5ADB22C43048430BD2D
:1016700030B5002304248C40A3B2048CDD43ADB20A
:101680002C400484048C02FA01F5ADB22C4304848E
:1016900030BD70B5034600200024184618300125DF
:1016A0008D40ACB21D8CE643B6B235401D8409B105
:1016B000082909D100EB6100056825F07005056077
:1016C0000568154305600CE00D1FADB200EB650029
:1016D000056825F4E04505600568160645EA1645E7
:1016E000056070BD21B1028842F00202028004E070
:1016F00002884FF6FD731A400280704721B10288BC
:1017000042F00402028004E002884FF6FB731A40A4
:101710000280704721B1828842F08002828004E01A
:1017200082884FF67F731A408280704702884FF696
:10173000F7731A40028002880A4302807047828849
:101740004FF68F731A40828082880A4382807047E6
:1017500002894FF6F8731A40028102890A43028116
:10176000704702894FF67F731A40028102890A434B
:1017700002817047818470478185704781867047F8
:101780000187704781877047A0F840107047028832
:101790004FF6FF431A40028002880A4302807047D6
:1017A0000146888E70470146088F70470146888F32
:1017B00070470146B1F8400070470146888C704779
:1017C0000146088D704702460020138A0B4201D063
:1017D000012000E000207047CA430282704730B504
:1017E0000246002000230024158A05EA010395899A
:1017F00005EA010413B10CB1012000E0002030BD66
:10180000CA4302827047000010B50446FC48844277
:1018100009D101218803FFF7D1F800214FF480405E
:10182000FFF7CCF832E0F748844209D1012148049F
:10183000FFF7D1F800214FF40030FFF7CCF825E096
:10184000F148844209D101218804FFF7C4F800213E
:101850004FF48020FFF7BFF818E0EC48844209D12C
:101860000121C804FFF7B7F800214FF40020FFF76B
:10187000B2F80BE0E648844208D101210805FFF7E1
:10188000AAF800214FF48010FFF7A5F810BD2DE94C
:10189000F04786B005460E460024A24600BFA1468A
:1018A0000027B08900B100BF2F462C8A4CF6FF708C
:1018B0000440F08804432C82AC894EF6F3100440B7
:1018C000B08831890843718908430443AC81AC8AEC
:1018D0004FF6FF400440B0890443AC8201A8FEF7F4
:1018E000E6FFC748874202D1DDF810A001E0DDF82D
:1018F0000CA0A88910F4004F08D00AEBCA0000EB36
:101900000A1031684900B0FBF1F807E00AEBCA00A1
:1019100000EB0A1031688900B0FBF1F86420B8FBD5
:10192000F0F004012009642101FB1089A88910F45A
:10193000004F08D0322000EBC900B0FBF1F000F0FE
:101940000700044308E0322000EB09106421B0FBDB
:10195000F1F000F00F0004432C8106B0BDE8F087E1
:101960004FF41651016000218180C18001810C215A
:10197000418100218181704710B502460020108A04
:101980004FF2FF0318400B884C8823438C88234375
:10199000CC8823431843108210BD00210180418070
:1019A0008180C180704721B1828942F400528281D6
:1019B00004E082894DF6FF731A4082817047F0B5CA
:1019C00003460024002600250020A1F510676A3F89
:1019D00000D100BF1846C1F3421401F01F060127D1
:1019E00007FA06F5012C01D10C3004E0022C01D1DC
:1019F000103000E014301AB107682F43076002E08E
:101A00000768AF430760F0BD10B51AB1838A0B4376
:101A1000838204E0838ACC43A4B22340838210BD36
:101A2000028A4FF6F0731A400282028A0A43028247
:101A3000704782894FF2FF731A40828182890A437C
:101A40008281704721B1828942F00202828104E0E2
:101A500082894FF6FD731A4082817047028A4FF6E1
:101A6000DF731A400282028A0A430282704721B160
:101A7000028A42F48042028204E0028A4BF6FF733B
:101A80001A4002827047C1F3080282807047014603
:101A90008888C0F308007047818941F00101818185
:101AA0007047028BD2B20283028B42EA0122028388
:101AB0007047028B02F47F420283028B0A43028347
:101AC000704721B1828A42F02002828204E0828A39
:101AD0004FF6DF731A408282704721B1828A42F04A
:101AE0001002828204E0828A4FF6EF731A408282EB
:101AF000704721B1828A42F00802828204E0828A21
:101B00004FF6F7731A408282704721B1828942F4FE
:101B10000042828103E08289C2F30E028281704713
:101B200021B1828A42F40062828204E0828A4FF20A
:101B3000FF731A4082827047828A4FF6FB731A4005
:101B40008282828A0A438282704721B1828A42F06D
:101B50000202828204E0828A4FF6FD731A4082827A
:101B6000704702460020B1F5007F00D100BF138806
:101B70000B4201D0012000E00020704701F4007208
:101B8000B2F5007F00D100BFCA430280704770B534
:101B900002460024002300250020A1F510666A3EBD
:101BA00000D100BFC1F3421501F01F03012606FA60
:101BB00003F3012D02D19689334006E0022D02D1B4
:101BC000168A334001E0968A33400C12012606FA49
:101BD00004F41688344013B10CB1012000E0002059
:101BE00070BD10B500220023A1F510646A3C00D13D
:101BF00000BF0A1201249440A3B2DC43048010BD4C
:101C0000003801400044004000480040004C0040C3
:101C10000050004000210020674A126842F48032E0
:101C2000654B1A6000BF644A126802F40030491C18
:101C300010B9B1F5A06FF6D15F4A126812F4003FF7
:101C400001D0012000E00020012842D15B4A126847
:101C500042F01002594B1A601A46126822F007022D
:101C60001A601A46126842F002021A60524A52681A
:101C7000514B5A601A4652685A601A46526842F4EA
:101C800080625A601A46526822F47C125A601A46E0
:101C9000526842F4E8125A601A46126842F08072A2
:101CA0001A6000BF444A126812F0007FFAD0424A1C
:101CB000526822F00302404B5A601A46526842F0C2
:101CC00002025A6000BF3C4A526802F00C02082A25
:101CD000F9D1704710B5FFF79DFF10BD10B536481C
:101CE000006840F001003449086008464068344903
:101CF00008403149486008460068324908402E498A
:101D000008600846006820F48020086008464068A3
:101D100020F4FE0048604FF41F008860FFF7DAFFF0
:101D20004FF000602849086010BD10B50021002068
:101D30000022214B5B6803F00C0121B1042906D07D
:101D4000082928D107E0214B214C236027E01F4BB5
:101D50001F4C236023E0184B5B6803F47010164B94
:101D60005B6803F48032022303EB904022B9194BE5
:101D70004343174C23600DE00F4B5B6813F4003FA7
:101D800004D0144B4343124C236003E00F4B4343F6
:101D90000F4C236003E00D4B0D4C236000BF00BFD0
:101DA000054B5B68C3F303130B4CE15C084B1B68EA
:101DB000CB40074C236010BD0010024000200240C1
:101DC0000000FFF8FFFFF6FE08ED00E000127A00C9
:101DD000F000002000093D00F400002008B50121BA
:101DE0001020FEF7D1FD4FF40050ADF80000102098
:101DF0008DF8030003208DF8020069460448FEF7C1
:101E00000FFB00224FF400510148FEF7B8FB08BD5C
:101E10000010014008B501210820FEF7B5FD4FF480
:101E20008050ADF8000048208DF803006946024854
:101E3000FEF7F6FA08BD0000000C014008B50121CC
:101E40000420FEF7A1FD01210820FEF79DFD0121E0
:101E50001020FEF799FD01212020FEF795FD0121BC
:101E60000846FEF791FD01216E48FEF7A8FB4820C9
:101E70008DF803004FF48050ADF8000069466A48C1
:101E8000FEF7CEFA10208DF8030003208DF8020033
:101E90003320ADF8000069466448FEF7C1FA41F20C
:101EA0003000ADF8000069466148FEF7B9FA042039
:101EB000ADF8000069465F48FEF7B2FA00205E49BF
:101EC00008605E49C1F890015D4908605D4908609D
:101ED0005D4908605D4908605D4908605749C1F87F
:101EE000840101465B48FFF74DFC00215948FFF78C
:101EF0004BFC00215748FFF741FC00215548FFF7F4
:101F00003FFC08BD70B505460C46FFF797FF012161
:101F10004803FEF739FD01211020FEF735FD4E483C
:101F2000806940F400504C4988610846806940F05F
:101F3000100088613E48406820F0FF003C4948603E
:101F40000846406840F0BB0048600846006820F042
:101F50007F4008600846006840F03B4008603D480C
:101F60002C300580001F04803A481830008840F06B
:101F700060003849183108800846008840F4C040A5
:101F80000880081D008840F06000091D0880084690
:101F9000008840F4C0400880081F008840F0080016
:101FA000091F08800846008840F400600880081D6A
:101FB000008840F00800091D08800846008840F4A9
:101FC00000600880081D008840F00100091D08809D
:101FD0000846008840F0100008800846008840F459
:101FE000807008800846008840F4805008800020F7
:101FF000184934310880091D0880091D0880091D11
:102000000880081D008840F40040091D08804FF436
:102010000040104908800846008840F00100088010
:1020200070BD00000002300000080140000C0140BB
:102030000010014000140140B00122420080214202
:102040009001224280812142888122429481214252
:1020500094012242003401400010024010B5FA48B9
:10206000406840F48070F8494860F848C06940F022
:102070000100F649C8610846806940F004008861A3
:102080000846806940F008008861F148006820F047
:102090007040EF4908600846006840F080400860E2
:1020A000EC48006820F47040EA490860084600687F
:1020B00040F4804008604FF08040808940F001008B
:1020C0004FF0804188810846808940F04000888137
:1020D00001231C220321184605F05EF900204FF071
:1020E000804108854FF6FF7088850846008820F4F7
:1020F000407008800846008820F06000088008468C
:10210000008B40F0010008830846008B40F480708B
:1021100008830846008C20F0020008840846008CE2
:1021200020F0200008840846008940F00300088160
:102130000846008840F00100088010BD10B5C34873
:10214000C06940F00200C149C8610846806940F09A
:1021500008008861BE48001F006820F07F40BC492D
:10216000091F08600846006840F088400860BA48C7
:10217000008840F00100B84908800846008840F017
:102180004000088001231D220321184605F004F9B0
:102190000020B1491C3108804FF6FF70091D0880EE
:1021A000AD480C38008820F44070AB490C390880E9
:1021B0000846008820F060000880A7480C3000889E
:1021C00040F00100A4490C3108800846008840F422
:1021D00080700880A0481430008820F002009E49DA
:1021E000143108800846008820F0200008809A48B2
:1021F000001F008840F003009749091F0880964897
:102200000C38008840F0010093490C39088010BD5B
:1022100010B58E48C06940F004008C49C86108467A
:10222000806940F0080088618A48006820F07F409B
:10223000884908600846006840F088400860874880
:10224000008840F00100854908800846008840F079
:102250004000088001231E220321184605F09CF847
:1022600000207E491C3108804FF6FF70091D088050
:102270007A480C38008820F4407078490C3908807E
:102280000846008820F06000088074480C30008800
:1022900040F0010071490C3108800846008840F484
:1022A000807008806D481430008820F002006B496F
:1022B000143108800846008820F020000880674814
:1022C000001F008840F003006449091F088063482C
:1022D0000C38008840F0010060490C39088010BDBE
:1022E00010B55A48C06940F008005849C86108460E
:1022F000806940F0040088615548001F006820F0A4
:10230000FF005349091F08600846006840F0440078
:1023100008605348008840F0010051490880084691
:10232000008840F040000880012332220321184633
:1023300005F032F800204A491C3108804FF6FF7042
:10234000091D088046480C38008820F44070444934
:102350000C3908800846008820F06000088040485A
:102360000C30008840F001003D490C3108800846DF
:10237000008840F48070088039481430008820F0CC
:1023800002003749143108800846008820F02000F8
:1023900008803348001F008840F003003049091FBF
:1023A00008802F480C38008840F001002C490C3977
:1023B000088010BD0146022906D003290DD004294A
:1023C00014D0052924D11AE04FF08042928C10B22B
:1023D00000224FF080439A841CE01F4A1832128872
:1023E00010B200221C4B18331A8013E01B4A18321B
:1023F000128810B20022194B18331A800AE0184ACA
:102400001832128810B20022154B18331A8001E0DE
:10241000002000BF00BF70474FF08040008A4FF09F
:102420008040008A20F001004FF080410882704710
:102430000948001D00880848001D008820F00100A0
:102440000549091D08807047000001400010024046
:1024500004080140000C01400C0400400C0800403E
:102460000C0C0040084800880748008820F0010054
:10247000054908807047054800880448008820F016
:10248000010002490880704710080040100C00400D
:1024900010B5082006F0AEFA7E490860082006F064
:1024A000A9FA7C49096808607A4800680068794997
:1024B0000968486077480068006810B976A005F0A0
:1024C000EFFD0020734909680968486010BD70B5C8
:1024D0000546794800680A2803DB78A005F0E0FD8E
:1024E00070BD082006F086FA044625706948006829
:1024F000006860606748006804606F480068401CBE
:102500006D49086000BF00BFEAE710B56148006888
:1025100004686048006800685E4909684968884244
:1025200004D16DA005F0BCFD002010BD00E0646882
:1025300058496068096849688842F8D1002060609D
:1025400054490968486806F02DFA5248006844600A
:1025500059480068401E584908602078E5E74D4812
:10256000006840684B4909680968884201D1002029
:1025700070470120FCE710B546480068046804E095
:1025800021785BA005F08CFD646860680028F7D1B5
:102590004948016858A005F083FD10BD10B50446F8
:1025A00021465A48FFF76FFA00BF40215748FFF70E
:1025B000D8FA0128F9D140215448FFF7DFFA10BDBD
:1025C00010B586B0044601211020FEF7DDF9012187
:1025D0008804FEF7E6F901214D48FDF7F0FF4FF4BE
:1025E0008060ADF8140003208DF8160018208DF8D7
:1025F000170005A94748FDF713FF4FF40060ADF839
:10260000140004208DF8170005A94248FDF708FFC3
:1026100001940020ADF80800ADF80A00ADF80C00F8
:10262000ADF810000C20ADF80E0001A93748FFF7F7
:102630002EF940213548FFF7A1FA012240F2255139
:102640003248FFF7BCF901213048FFF7ACF92720E9
:102650008DF8000002208DF8010003208DF80200A3
:1026600001208DF803006846FDF711FEFFF710FF0B
:1026700006B010BD10B540F225512448FFF787FA87
:1026800030B12248FFF703FAC4B22046FFF71FFF1C
:1026900010BD000008010020457220303030313A72
:1026A00020496E6974207175657565206572726F59
:1026B00072210D0A00000000040100204572203044
:1026C0003030323A205175657565206F76657266D7
:1026D0006C6F77210D0A0000457220303030323A9D
:1026E00020517565756520656D707479210D0A003E
:1026F00025632C2000000000517565756520736905
:102700007A65202564200D0A000000000048004082
:1027100010001400001001406C48806940F0040073
:102720006A4988616A48006820F470006849086056
:102730006648806940F40070644988610846C06852
:1027400040F40070C8600846C06820F40070C8609B
:102750000846406820F4404048600846406840F41D
:10276000004048605B4800685B4908405949086080
:102770000846006808600846006820F48070086019
:10278000081D006820F00200091D08600846006866
:1027900020F4602008600846006840F4602008606B
:1027A0000846006840F4801008600846006820F47D
:1027B0000060086047482830006820F470004549F0
:1027C00028310860084600680020086041480C3045
:1027D000006820F470003F490C310860084600682A
:1027E00040F4603008603B48001D006840F0010084
:1027F0003849091D08600846006840F00800086074
:1028000000BF3448001D006810F0080FF9D13148AE
:10281000001D006840F004002E49091D086000BF3B
:102820002C48001D006810F0040FF9D170470146D4
:1028300028483030006820F01F00264A30321060EF
:1028400010460068084310602248001D006840F4EC
:102850008000204A121D106000BF1E48001F006843
:1028600010F0020FF9D01B484830006880B2704762
:102870002DE9F04F87B00520FFF7D9FF019005F053
:10288000DAF980464FF06632144B05F0E7F8002283
:10289000134BCDE9020105F0E1F80022114BCDE91F
:1028A000040105F0DBF8064600220F4B05F046F95F
:1028B000044600220D4B05F041F9824605F0F5F97A
:1028C0000690069807B0BDE8F08F000000100240A7
:1028D0000008014004240140FFFFF00066660A4042
:1028E00000002640000059400000F03F0000B040CA
:1028F000FE48806940F00800FC498861FC48006897
:1029000020F47F40FA4908600846006840F44C50C3
:102910000860704710B5F648006820F47040F4492C
:1029200008600846006840F4405008600120F14902
:102930000860F148D0F82C0108B9002010BD012032
:10294000EE49086004F0E6FD0020EB49C1F8AC0157
:10295000EB48006808B10020F0E7012004F0DAFD40
:102960000020E64908604FF00100E7E710B5E048B5
:10297000006820F47040DE4908600846006840F4B2
:10298000405008600020DD490860DB49C1F8AC0117
:102990004FF0010004F0BEFD0120D8490860D6497F
:1029A000C1F8AC0104F0B6FD10BD10B50024D0484C
:1029B000006820F47040CE4908600846006840F482
:1029C000004008600120CB49086004F0A3FD01200D
:1029D000C949C1F8A80104F09DFD0AE0601CC4B219
:1029E000322C03DDFFF7C2FF002010BD012004F0F0
:1029F00091FDC34800680028F0D1C04908604FF03D
:102A00000100F2E710B50020BC490860B848006832
:102A100020F47040B64908600846006840F4405011
:102A200008604FF00000B449C1F8AC014FF001005C
:102A300004F070FD0120B149086004F06BFD002036
:102A4000AD49C1F8A80110BD10B50020AB49086020
:102A5000A748006820F47040A5490860084600684F
:102A600040F4405008604FF00100A349C1F8AC01A8
:102A700004F050FD0120A149086004F04BFD002046
:102A80009D49C1F8A80110BD70B50446984800687A
:102A900020F47040964908600846006840F44050B1
:102AA0000860002095490860054619E0E009914951
:102AB00008604FEA44604FEA10644FF0010004F0F0
:102AC00029FD01208C49C1F8A80104F023FD002054
:102AD0008A4908604FF0010004F01CFD681CC5B273
:102AE000082DE3DB70BD2DE9F04105460E46174683
:102AF0009846FFF70FFF10B90120BDE8F081690685
:102B0000080EFFF7C1FFFFF750FF18B9FFF72EFFC0
:102B10000120F2E73046FFF7B7FFFFF746FF00243A
:102B20000BE018F80400FFF7AFFFFFF73EFF18B9FE
:102B3000FFF71CFF0020E0E7641CBC42F1DBFFF75D
:102B400015FF0020D9E770B50546002468480068E5
:102B500020F47040664908600846006840F4004070
:102B60000860002616E00020644908604FF002006B
:102B700004F0D0FC01206049C1F8A8016006040EF1
:102B80005F48006808B1601CC4B2022004F0C2FCB7
:102B9000701CC6B2082EE6DB15B1FFF733FF01E06B
:102BA000FFF752FF204670BD2DE9F04106460F4663
:102BB00014461D46FFF7AEFE10B90120BDE8F081B6
:102BC0007106080EFFF760FFFFF7EFFE18B9FFF779
:102BD000CDFE0120F2E73846FFF756FFFFF7E5FE8E
:102BE000FFF798FE012101EB4601C8B2FFF74CFF49
:102BF000FFF7DBFE0DE0012C04D10020FFF7A3FF5F
:102C0000287003E00120FFF79EFF28706D1C601EF6
:102C1000C4B2002CEFD1FFF7A9FE0020CEE770B5BB
:102C200005460E460024FFF775FE2846FFF72CFFE9
:102C3000641CFFF7BAFE3046FFF726FF641CFFF75F
:102C4000B4FEFFF767FE681CC0B2FFF71DFF641CEF
:102C5000FFF7ABFE0020FFF776FF0446FFF786FE86
:102C6000204670BD2DE9F04180460F4615461E46B0
:102C70000024FFF74FFE4046FFF706FFFFF795FEE3
:102C80003846FFF701FFFFF790FEFFF743FE08F11C
:102C90000100C0B2FFF7F8FEFFF787FE00BF0DE0AE
:102CA000681EA04204D00120FFF74DFF305503E01D
:102CB0000020FFF748FF3055601CC4B2AC42EFDB88
:102CC000FFF754FE2046BDE8F0812DE9F041804633
:102CD0000D4616461F460024FFF71CFE4046FFF730
:102CE000D3FEFFF762FE28460CE000000010024011
:102CF000040C0140AC81214200802142A881214284
:102D00002C812142FFF7C0FEFFF74FFE00BF06E017
:102D1000385DFFF7B9FEFFF748FE601CC4B2B4424D
:102D2000F6DBFFF723FE0120BDE8F08170B5054614
:102D30000E46144631462846FFF771FF20700120E9
:102D400070BD37B504460D4602AB01222946204628
:102D5000FFF7BBFF3EBD2DE9F84307468846144602
:102D60001D46089E6A4641463846FFF7DFFF28B3F6
:102D7000601CFF2101FA00F0C4F108012944491E3A
:102D8000FF220A41104300F0FF09C5F1080006FACE
:102D900000F0C6B2C4F1070006419DF8000000EA49
:102DA000090000909DF80000304300909DF800203D
:102DB00041463846FFF7C5FFBDE8F8830020FBE732
:102DC000F8B506460F4614461D466A463946304653
:102DD000FFF7ACFF2DB10120A0409DF80010084383
:102DE00005E00120A0409DF8001021EA0000C0B2DB
:102DF00000909DF8002039463046FFF7A2FFF8BD4D
:102E0000014691F90020002A01DD00201EE091F921
:102E10000020002A01DA042018E091F90120002A9C
:102E200001DD012012E091F90120002A01DA0520DC
:102E30000CE091F90220002A01DD022006E091F960
:102E40000220002A01DA062000E00720704770B552
:102E500005462846FFF7D4FF0446E81CFFF7D0FFDD
:102E600044EAC00084B2A81DFFF7CAFF44EA8010FC
:102E700084B2204670BD70B588B002A905A802F0E2
:102E800019F90446072C3FD101A801F079FB0598F8
:102E900004F0C3FE0646019904F0C2FC054604F0A6
:102EA000D7FE0590069804F0B8FE0646019904F096
:102EB000B7FC054604F0CCFE0690079804F0ADFE82
:102EC0000646019904F0ACFC054604F0C1FE0790EB
:102ED00005A802F000FC684601F06FFBBDF8001089
:102EE000029848430290BDF80010039848430390AD
:102EF000BDF8001004984843049002A802F086FC34
:102F0000FDA005F0CDF800BF08B070BD2DE9F0437D
:102F100004460D46DDE907670021012041E0DFF8A6
:102F2000FCC33CF81080A0F1010CDFF8F09329F805
:102F30001C8009F1160C3CF81090A0F1010CDFF890
:102F4000DC8308F1160828F81C9008F1160C3CF8F0
:102F50001090A0F1010C08F1160828F81C9008F157
:102F6000160C3CF81090A0F1010C08F1160828F896
:102F70001C9008F1160C3CF81090A0F1010C08F11F
:102F8000160828F81C9008F1160C3CF81090A0F1D7
:102F9000010C08F1160828F81C9000F1010C0CF047
:102FA000FF000A28BBDBDFF874C3ACF81240ACF8B2
:102FB0002850ACF83E20ACF85430ACF86A60ACF85D
:102FC00080700021002008E0DFF850C33CF910C0F9
:102FD000614400F1010C0CF0FF000A28F4DB4FF013
:102FE0000A0C91FBFCFC0FFA8CFCDFF83083A8F88C
:102FF00014C0002100200AE0DFF820C30CF1160CF9
:103000003CF910C0614400F1010C0CF0FF000A28EB
:10301000F2DB4FF00A0C91FBFCFC0FFA8CF8DFF8A6
:10302000FCC2ACF82A80002100200AE0DFF8ECC2E4
:103030000CF12C0C3CF910C0614400F1010C0CF0B7
:10304000FF000A28F2DB4FF00A0C91FBFCFC0FFAA0
:103050008CF8DFF8C8C2ACF84080002100200AE0FC
:10306000DFF8B8C20CF1420C3CF910C0614400F129
:10307000010C0CF0FF000A28F2DB4FF00A0C91FB68
:10308000FCFC0FFA8CF8DFF894C2ACF856800021F3
:1030900000200AE0DFF884C20CF1580C3CF910C0A3
:1030A000614400F1010C0CF0FF000A28F2DB4FF044
:1030B0000A0C91FBFCFC0FFA8CF8DFF860C2ACF84C
:1030C0006C80002100200AE0DFF850C20CF16E0C89
:1030D0003CF910C0614400F1010C0CF0FF000A281B
:1030E000F2DB4FF00A0C91FBFCFC0FFA8CF8DFF8D6
:1030F0002CC2ACF88280BDE8F08338B504460323C7
:1031000002226B21D0200094FFF725FE38BD38B590
:103110000446022304221B21D0200094FFF71BFE4B
:1031200038BD38B50446022304221C21D020009467
:10313000FFF711FE38BD10B50446234606226B2169
:10314000D020FFF73DFE10BD10B5754B0122752153
:10315000D020FFF787FD7248007810BD10B5FFF74B
:10316000F3FF682801D1012010BD0020FCE710B555
:103170000446234605226A21D020FFF721FE10BD18
:1031800010B50446234601223721D020FFF718FE50
:1031900010BD10B50220FFF7B0FF0320FFF7B7FF07
:1031A0000020FFF7BEFF0020FFF7C5FF0020FFF75C
:1031B000DEFF0020FFF7E4FF10BD38B500200090CF
:1031C0006B46012275216820FFF7EEFC55A004F044
:1031D00067FF9DF8000068280ED000BF5A480068BD
:1031E00000F4E06059490843001D57490860BFF3E7
:1031F000408F00BF00BFFEE700F0CFFE00283CD1AB
:10320000782000F032FB10B946A004F049FF782086
:1032100000F012FD10B94EA004F042FFC82000F0EB
:10322000ECFD10B954A004F03BFF02F0B9F910B95D
:103230005BA004F035FF6748FFF709FE044602F083
:10324000B9F910B964A004F02BFF40F2731002F03A
:1032500008FE10B96AA004F023FFC82002F07AFB30
:1032600010B971A004F01CFFFFF705FE012001F06A
:10327000DCFE10B975A004F013FF38BD2DE9F04F46
:103280008FB00CA87A490DAB08AACDE90010794996
:10329000794802F045FF7648008810F4807F2AD0F4
:1032A000089804F0BAFC04464FF09D4104F0EEFA91
:1032B00072490860099804F0B0FC04464FF09D4143
:1032C00004F0E4FA6E4908600A9804F0A6FC04468B
:1032D0004FF09D4104F0DAFA6A4908600B9804F057
:1032E0009CFC04464FF09D4104F0D0FA664908600A
:1032F00062480168CAE0A5E173657474696E67206D
:10330000626961732073756363657366756C6C794C
:10331000202E2E2E2E2E2E0D0A000000FE01002043
:10332000F00100206D70755F7365745F73656E7377
:103330006F7220636F6D706C657465202E2E2E2E5B
:103340002E2E0D0A000000000CED00E00000FA0532
:103350006D70755F636F6E6669677572655F6669CC
:10336000666F20636F6D706C657465202E2E2E2E37
:103370002E2E0D0A000000006D70755F7365745F7E
:1033800073616D706C655F7261746520636F6D70E1
:103390006C657465202E2E2E2E2E2E0D0A00000038
:1033A000646D705F6C6F61645F6D6F74696F6E5F89
:1033B0006472697665725F6669726D7761726520A5
:1033C000636F6D706C657465202E2E2E2E2E2E0D63
:1033D0000A0000001C010020646D705F7365745F5B
:1033E0006F7269656E746174696F6E20636F6D7062
:1033F0006C657465202E2E2E2E2E2E0D0A000000D8
:10340000646D705F656E61626C655F666561747541
:10341000726520636F6D706C657465202E2E2E2E84
:103420002E2E0D0A00000000646D705F7365745FDE
:103430006669666F5F7261746520636F6D706C653D
:103440007465202E2E2E2E2E2E0D0A006D70755FA7
:103450007365745F646D705F737461746520636F0E
:103460006D706C657465202E2E2E2E2E2E0D0A008A
:1034700038010020320100202C0100200C01002026
:103480001001002014010020180100204FF080409E
:1034900004F0C6F9069088480168069804F0C0F95F
:1034A0008246864801684FF0404004F0B9F9069022
:1034B00083480168069804F0B3F98346514604F046
:1034C00057F9079004F010FC804604F05BFF0646B5
:1034D0004FF066327B4B04F0C1FA044604F01AFC4C
:1034E00079490860744801684FF0804004F098F909
:1034F000039071480168039804F092F982466F487E
:1035000001684FF0404004F08BF903906B4801686C
:10351000039804F085F98346514604F07BF981460F
:103520004FF07E5104F024F9804604F0DDFBCDE934
:103530000401664801684FF0804004F071F9834649
:103540005E480168584604F06BF981465A480168A4
:103550004FF0804004F064F98346594801685846AA
:1035600004F05EF98246494604F002F9804604F010
:10357000BBFB0446DDE9042305F054F94FF0663245
:10358000504BCDE9060104F069FA064604F0C2FB8F
:103590004F4908604A480168006804F041F9039007
:1035A00045480168006804F03BF90290434801680F
:1035B000006804F035F9834644480168006804F067
:1035C0002FF95946019004F0D3F88246029904F08D
:1035D00021F98146039904F01DF9804604F084FB2B
:1035E00004460D46364801683848006804F018F96A
:1035F0008246314801683148006804F011F9834679
:10360000514604F0B5F881464FF0804104F008F9C6
:10361000804604F069FB064622462B4605F002F977
:103620004FF06632274BCDE9040104F017FACDE9DB
:10363000060104F06FFB274908602748B0F9040031
:10364000264908600FB0BDE8F08F2DE9F05F4221F8
:10365000D020FFF7E4FA05464121D020FFF7DFFA3A
:1036600005EB0024204604F0D8FA82464FF08E4144
:10367000504604F075FB05D24FF08F41504604F0E0
:10368000C9F882461649504604F000F9834604F012
:103690002BFB8046134A144B04F038F906460022EF
:1036A000124B04F0DBF9044604F034FB824650462A
:1036B00004F0CEFABDE8F09F1401002010010020B4
:1036C0001801002066A64C40AC0000200C01002030
:1036D000B0000020B40000202C010020D800002001
:1036E0000000AA43A4703D0AD74342400000244092
:1036F00038B50446FB4890F82400C0B114B102204C
:10370000009001E000200090F64A1268D17BF54A53
:10371000526810786B460122FFF7E5F910B14FF0BF
:10372000FF3038BD9DF80010EE48417423E0ED48AD
:10373000807A10B94FF0FF30F3E724B1E948407CBC
:1037400008B10020EDE714B10120009001E0002055
:103750000090E44A1268D17BE24A526810786B46C6
:103760000122FFF7C0F910B14FF0FF30D9E79DF803
:103770000010DC4841740020D3E738B5002419E07C
:10378000D8480068C07AA04204D0D6480068407D7E
:10379000A04200D10CE0D349496808786B46012269
:1037A0002146FFF701FA10B14FF0FF3038BD00BFDE
:1037B000601CC4B2CB4840680079A042E0DC002025
:1037C000F4E770B504460D46C6480068C07AA042CA
:1037D00004D0C4480068407DA04202D14FF0FF30C1
:1037E00070BDC04840680079A04202DC4FF0FF3055
:1037F000F6E7BC49496808782B4601222146FFF7C5
:10380000D3F9EDE738B50446B64890F82300A04256
:1038100001D1002038BD14B13020009001E000201B
:103820000090B048807C20B19DF8000040F002007C
:103830000090AC4890F8220020B19DF8000040F0C4
:1038400080000090A74A1268117DA64A526810783D
:103850006B460122FFF747F910B14FF0FF30D9E76F
:10386000A04880F823400020D4E738B5044614F07F
:10387000700F02D00120009005E014B100200090EC
:1038800001E040200090974A1268917C954A526866
:1038900010786B460122FFF726F920B100219148EC
:1038A0008172481E38BD9DF8000020F040018D480F
:1038B00001730020009014F0400F04D19DF8000027
:1038C00040F00400009014F0200F04D19DF8000097
:1038D00040F00200009014F0100F04D19DF8000099
:1038E00040F00100009014F0080F04D19DF8000092
:1038F00040F0380000907B4A1268D17C794A5268C7
:1039000010786B460122FFF7EEF820B100217548D0
:103910008172481EC6E724B1082C02D00020FFF7B0
:1039200071FF7048847200210175322003F00CFE93
:103930000020B7E738B504466A48807CA04201D130
:10394000002038BD002C46D0664A12681179654ABD
:10395000526810786B460122FFF726F910B14FF03C
:10396000FF30EEE79DF8000020F0200000905D4A57
:10397000126811795B4A526810786B460122FFF792
:10398000B2F810B14FF0FF30DBE7032003F0DCFDAD
:1039900002200090534890F8220020B19DF80000CA
:1039A00040F0800000904F4890F8230020B19DF82F
:1039B000000040F0300000904A4A1268117D494AE8
:1039C000526810786B460122FFF78DF8002851D01D
:1039D0004FF0FF30B5E7434A12681179414A526807
:1039E00010786B460122FFF7DFF810B14FF0FF307F
:1039F000A7E73C48807A10F0010F05D09DF8000041
:103A000040F02000009004E09DF8000020F020002D
:103A10000090344A12681179324A526810786B4625
:103A20000122FFF760F810B14FF0FF3089E7032063
:103A300003F08AFD2B4890F8220010B180200090FE
:103A400001E000200090274890F8230020B19DF865
:103A5000000040F030000090224A1268117D214A97
:103A6000526810786B460122FFF73DF810B14FF015
:103A7000FF3066E71B488474002062E708B51948E8
:103A8000807A10B94FF0FF3008BD00200090154A31
:103A90001268D17B134A526810786B460122FFF7F7
:103AA00022F810B14FF0FF30EEE70E4A126851795C
:103AB0000C4A526810786B460122FFF714F810B1D7
:103AC0004FF0FF30E0E7074A12681179054A526863
:103AD00010786B460122FFF706F828B14FF0FF304F
:103AE000D2E700003C010020F74890F824000028AD
:103AF00050D00C200090F44A12681179F24A5268B2
:103B000010786B460122FEF7EEFF10B14FF0FF3048
:103B1000BAE7C0200090EC48807A10F0010F04D082
:103B20009DF8000040F020000090E74A12681179EB
:103B3000E54A526810786B460122FEF7D4FF10B1B7
:103B40004FF0FF30A0E7E048407C10B10220009029
:103B500001E000200090DC4A1268D17BDA4A52680A
:103B600010786B460122FEF7BEFF10B14FF0FF3018
:103B70008AE700200090D44A12685179D24A5268EC
:103B800010786B460122FEF7AEFF002852D04FF0AE
:103B9000FF3079E704200090CB4A12681179CA4AB5
:103BA000526810786B460122FEF79DFF10B14FF06E
:103BB000FF3069E7C448807C20B9C348807A10F0A0
:103BC000010F02D14020009001E060200090BE4A29
:103BD00012681179BC4A526810786B460122FEF7D0
:103BE00082FF10B14FF0FF304EE7B748407C10B174
:103BF0000120009001E000200090B34A1268D17BC0
:103C0000B14A526810786B460122FEF76CFF10B182
:103C10004FF0FF3038E7AC4A12685179AA4A52682F
:103C20001078A94B10330122FEF75DFF10B14FF061
:103C3000FF3029E7002027E770B50446002624F06E
:103C40000104A14890F8240008B1002070BD9E48EE
:103C5000807A10B94FF0FF30F8E79B48057C807AF6
:103C60002040994908740846007CA04202D04FF0D9
:103C7000FF3600E0002614B99348007D18B10120FA
:103C8000FFF736FD02E00020FFF732FD3CB1FFF701
:103C9000F5FE20B18C4805744FF0FF30D6E7304672
:103CA000D4E738B504468848807A10B94FF0FF3021
:103CB00038BDBC2C02DB0120009015E0622C02DB39
:103CC0000220009010E02A2C02DB032000900BE081
:103CD000142C02DB0420009006E00A2C02DB0520F5
:103CE000009001E0062000907748C07A9DF800100F
:103CF000884201D10020DBE7734A12689178724A4A
:103D0000526810786B460122FEF7EDFE10B14FF0BD
:103D1000FF30CDE79DF800106B48C1720020C7E767
:103D200038B50446282C02DD4FF0FF3038BDDCB931
:103D30000020FFF767FD00208DF8000007208DF8B8
:103D40000100614A1268917C5F4A526810786B46A4
:103D50000222FEF7C8FE10B14FF0FF30E6E7002167
:103D6000594801750020E1E70120FFF74BFD2020B5
:103D70008DF80000012C06D100208DF801000520EF
:103D8000FFF78FFF17E0052C06DC01208DF80100FE
:103D90000520FFF786FF0EE0142C06DC02208DF8CC
:103DA00001000A20FFF77DFF05E003208DF80100E8
:103DB0001420FFF776FF9DF80100072101EB80102A
:103DC000C0B28DF80100404A1268917C3E4A5268A8
:103DD00010786B460222FEF786FE10B14FF0FF30DE
:103DE000A4E708213848817200210173012101757F
:103DF0000020FFF721FF002098E738B5044632483D
:103E0000807A10B94FF0FF3038BD2F4890F8240069
:103E100010B14FF0FF30F7E72B48007D50B134B1BF
:103E2000282C04DCE0B2FFF77BFF0020ECE7002049
:103E3000FFF776FF042C01DA042404E0B4F57A7F5E
:103E400001DD4FF47A744FF47A7090FBF4F0401E69
:103E5000C0B200901C4A126851781B4A5268107810
:103E60006B460122FEF73FFE10B14FF0FF30CBE76B
:103E70009DF80000401C4FF47A7191FBF0F081B284
:103E80001148C1810146C9894810FFF70AFF002087
:103E9000BAE738B504460C48807A10B94FF0FF30C5
:103EA00038BD022C06D0042C07D0082C08D0102CCA
:103EB0000FD10BE0002000900EE0082000900BE0F6
:103EC0001020009008E000003C0100201820009025
:103ED00002E04FF0FF30E3E700BFF948407A9DF879
:103EE0000010B0EBE10F01D10020D9E7F44A1268CD
:103EF000D179F34A526810786B460122FEF7F3FD40
:103F000010B14FF0FF30CBE79DF80000C110EC4836
:103F100041720020C4E738B50446E948807A10B9F8
:103F20004FF0FF3038BDFA2C09D0B4F5FA7F09D034
:103F3000B4F57A7F09D0B4F5FA6F0CD108E000200F
:103F400000900BE00820009008E01020009005E0B1
:103F50001820009002E04FF0FF30E3E700BFD848A0
:103F6000007A9DF80010B0EBE10F01D10020D9E7F5
:103F7000D34A12689179D24A526810786B4601226E
:103F8000FEF7B1FD10B14FF0FF30CBE79DF8000018
:103F9000C010CB4908720020C4E71CB580208DF802
:103FA0000000C74A1268917CC54A526810786B4677
:103FB0000122FEF798FD10B14FF0FF301CBD6420C8
:103FC00003F0C2FA00208DF80000BD4A1268917C0F
:103FD000BB4A526810786B460122FEF784FD10B18F
:103FE0004FF0FF30EAE7B64A1268917DB44A526852
:103FF00010786B460622FEF7D7FD10B14FF0FF3068
:10400000DCE79DF80500C007400F9DF8031001F0A4
:10401000010140EA41009DF8011001F0010140EA70
:10402000010494B1012C03D10121A548C17431E0F0
:10403000022C03D10021A248C1742BE02146A1A08B
:1040400004F02EF84FF0FF30B8E79D4A1268D1789F
:104050009B4A526810786B460122FEF7A5FD10B10D
:104060004FF0FF30AAE79DF8000000F00F042CB9D4
:104070009E4804F015F84FF0FF309FE7042C06D15E
:104080009BA004F00DF801218D48C17402E00021CD
:104090008B48C174FF218A488172FF2088490872C9
:1040A000FF2187484172C1724FF6FF71C181FF2124
:1040B000017481740121017380F82210002180F8BD
:1040C000231041750175163001604160816016381A
:1040D00080F8241080F82510C1844FF4FA60FFF7AF
:1040E0001AFF10B14FF0FF3068E70220FFF7D1FE52
:1040F00010B14FF0FF3061E72A20FFF7D2FD10B179
:104100004FF0FF305AE73220FFF777FE10B14FF043
:10411000FF3053E70020FFF78FFD10B14FF0FF3065
:104120004CE70020FFF706FC10B14FF0FF3045E7E9
:104130000020FFF79AFB002040E770477CB504465B
:104140000D465F48807A10F0700F02D14FF0FF30BB
:104150007CBD5B4A1268117B594A526810786B46E5
:104160000622FEF721FD10B14FF0FF30F0E79DF879
:1041700001009DF8001040EA012000B220809DF867
:1041800003009DF8021040EA012000B260809DF813
:1041900005009DF8041040EA012000B2A08015B18E
:1041A0002846FFF7CAFF0020D2E77CB504460D463B
:1041B0004348807A10F0080F02D14FF0FF307CBDE9
:1041C0003F4A1268517B3E4A526810786B4606227D
:1041D000FEF7EAFC10B14FF0FF30F0E79DF8010068
:1041E0009DF8001040EA012000B220809DF80300F5
:1041F0009DF8021040EA012000B260809DF80500A1
:104200009DF8041040EA012000B2A08015B12846B4
:10421000FFF793FF0020D2E72DE9FE4F05460C463D
:104220002748807A18B94FF0FF30BDE8FE8F244A46
:104230001268917B224A5268107802AB0222FEF784
:10424000B3FC10B14FF0FF30EFE79DF809009DF887
:10425000081040EA012006B214B12046FFF76DFFB6
:1042600017494968C88803F0E1FC1549019049687D
:10427000B1F9080003F0D1FC8346304603F0CDFCD1
:104280005946009003F0C6FA8246019903F0FEFAFF
:1042900081461F4903F06CFA80464FF08F4103F0CE
:1042A000BFFA074603F0D4FC28600020BDE710B534
:1042B00088B004461CB94FF0FF3008B010BD29E0AB
:1042C0003C010020556E737570706F7274656420C8
:1042D000736F6674776172652070726F6475637452
:1042E000207265762025642E0A000000008B0008ED
:1042F00048616C662073656E736974697669747958
:10430000207061727420666F756E642E0D0A000055
:1043100000000C42206830B9606820B9A06810B96C
:10432000002008B010BDFA494968087806AB03229E
:104330001146FEF739FC10B14FF0FF30F1E79DF860
:104340001800082101EB201000F00F00ADF800006C
:104350009DF8190001EB201000F00F00ADF80200ED
:104360009DF81A0001EB201000F00F00ADF80400DA
:1043700020684100BDF90000403091FBF0F000B230
:10438000ADF8100060684100BDF90200403091FBBB
:10439000F0F000B2ADF81200A0684100BDF90400D1
:1043A000403091FBF0F000B2ADF81400D8494968F4
:1043B000087806AB06221146FEF7F6FB10B14FF067
:1043C000FF30AEE79DF819009DF8181040EA012073
:1043D00000B2ADF808009DF81B009DF81A1040EAE5
:1043E000012000B2ADF80A009DF81D009DF81C10D8
:1043F00040EA012000B2ADF80C00BDF81000BDF895
:104400000810084400B2ADF81000BDF81200BDF865
:104410000A10084400B2ADF81200BDF81400BDF84F
:104420000C10084400B2ADF81400BDF81000000AEA
:104430008DF81800BDF81000C0B28DF81900BDF855
:104440001200000A8DF81A00BDF81200C0B28DF8F3
:104450001B00BDF81400000A8DF81C00BDF8140004
:10446000C0B28DF81D00AA494968087806AB06223B
:104470001146FEF738FB10B14FF0FF3051E7002036
:104480004FE70146A248007A30B1012807D0022840
:1044900009D003280FD10AE0FA2008800EE04FF47B
:1044A000FA7008800AE04FF47A70088006E04FF452
:1044B000FA60088002E00020088000BF00BF0020F2
:1044C000704701469248407A30B1012807D002284F
:1044D00008D003280CD108E0022008700BE004206B
:1044E000087008E00820087005E01020087002E05D
:1044F0004FF0FF30704700BF8548C07C18B1087886
:104500004006000E08700020F4E701468048C07A9B
:10451000082817D2DFE800F01704070A0D10131857
:10452000BC20088013E06220088010E02A20088068
:104530000DE0142008800AE00A20088007E005202A
:10454000088004E000BF00BF0020088000BF00BF5B
:104550000020704701466E4890F8240010B14FF0DB
:10456000FF3070476A48C08908800020F9E701469B
:1045700000200880401E704701464FF0FF30704712
:1045800001466348007A30B1012807D0022808D0DC
:1045900003280CD108E05F4808600BE05E48086023
:1045A00008E05E48086005E05D48086002E04FF002
:1045B000FF30704700BF0020FBE701465448407AB7
:1045C00030B1012808D002280AD0032810D10BE00E
:1045D0004FF4804008800EE041F69C7008800AE0AD
:1045E0004FF48050088006E04FF40060088002E03D
:1045F0004FF0FF30704700BF4548C07C10B10888BD
:10460000401008800020F5E701464148007C087012
:104610000020704701463E48807A10B101200870A2
:1046200001E0002008700020704738B50446384883
:10463000807A10B94FF0FF3038BD354A1268117CCE
:10464000334A526810786B460222FEF7ADFA10B179
:104650004FF0FF30F0E79DF801009DF8001040EAB0
:10466000012000B220800020E6E72DE9FE4F07463A
:10467000884692461D46DDF830B0002600242448C6
:1046800090F8240010B1601EBDE8FE8F0020287055
:104690001F48807A10B94FF0FF30F5E71C48007CC6
:1046A00010B94FF0FF30EFE71948007C10F0400FD1
:1046B00001D0B01CC6B21648007C10F0200F01D00B
:1046C000B01CC6B21248007C10F0100F01D0B01C14
:1046D000C6B20F48007C10F0080F01D0B01DC6B262
:1046E0000B4A1268917A0A4A526810786B46022285
:1046F000FEF75AFA10B14FF0FF30C5E79DF8010000
:104700009DF8001040EA0129B1450BDA0020BBE713
:104710003C01002000000343000083423333034286
:1047200033338341FA4840684088B9EB600F17DDA6
:10473000F74A1268517CF64A526810786B4601229B
:10474000FEF732FA10B14FF0FF309DE79DF8000000
:1047500010F0100F04D0FFF791F96FF0010093E70C
:104760005046FFF7EAFCEA4A1268D17AE84A5268F2
:1047700010786B463246FEF717FA10B14FF0FF3053
:1047800082E799FBF6F0401E8BF8000000202870AD
:10479000B4422AD0DE48007C10F0080F25D0601CFF
:1047A0001DF800001DF8041040EA012000B2A8F82E
:1047B0000000E01C1DF80010A01C1DF8000041EADC
:1047C000002000B2A8F80200601D1DF80010201D96
:1047D0001DF8000041EA002000B2A8F80400287883
:1047E00040F008002870A01D84B2B44213D0C8481D
:1047F000007C10F0400F0ED0601C1DF800001DF86A
:10480000041040EA012000B23880287840F04000CF
:104810002870A01C84B2B44213D0BD48007C10F0B4
:10482000200F0ED0601C1DF800001DF8041040EA97
:10483000012000B27880287840F020002870A01C69
:1048400084B2B44213D0B248007C10F0100F0ED0E6
:10485000601C1DF800001DF8041040EA012000B2A1
:10486000B880287840F010002870A01C84B2002086
:104870000AE7F8B504460F461646A54890F8240006
:1048800010B94FF0FF30F8BDA148807A10B94FF051
:10489000FF30F8E79E4A1268917A9D4A5268107874
:1048A0006B460222FEF780F910B14FF0FF30EAE7C5
:1048B0009DF801009DF8001040EA0125A54203DAA9
:1048C00000203070401EDEE7914840684088B5EB1C
:1048D000600F17DD8E4A1268517C8D4A526810783D
:1048E0006B460122FEF760F910B14FF0FF30CAE7C6
:1048F0009DF8000010F0100F04D0FFF7BFF86FF024
:104900000100C0E7824A1268D17A814A5268107861
:104910003B46E2B2FEF748F910B14FF0FF30B2E784
:1049200095FBF4F0401E30700020ACE7014678485B
:1049300080F82210002070477CB50546744949680C
:10494000087801AB04220D21FEF72EF908B10720EB
:104950007CBD9DF80700C0F301109DF8041001F024
:10496000E00140EAE1008DF800009DF80700C0F387
:1049700081009DF8051001F0E00140EAE1008DF8AA
:1049800001009DF8070000F003009DF8061001F0FB
:10499000E00140EAE1008DF8020000241CE01DF86F
:1049A000040018B9002045F8240013E0594845F8E0
:1049B000240006E055F82400574902F031FF45F87D
:1049C00024001DF80400401E10F0FF000DF8040044
:1049D000F0D100BF601CC4B2032CE0DB0020B7E7BD
:1049E0002DE9FE4F06460F4600256846FFF7A4FF57
:1049F000002440E056F8240057F82410B0EB010AD8
:104A000001D4514601E0CAF10001084603F005F95E
:104A100083464FF08F4102F039FF80465DF8240055
:104A2000002103F093F916D05DF82410404602F0FF
:104A30002DFF82464FF07E5102F0ECFE814629F0B8
:104A4000004A3648416A504603F08AF912D20120E2
:104A5000A04005430EE03148C169404603F076F9B5
:104A600005D32E48016A404603F07AF902D20120AC
:104A7000A0400543641C032CBCDB2846BDE8FE8F28
:104A80002DE9FC5F06460F46002521494968087854
:104A900001AB03220D21FEF787F810B10720BDE816
:104AA000FC9F9DF8040000F01F008DF804009DF8A5
:104AB000050000F01F008DF805009DF8060000F0CD
:104AC0001F008DF80600002460E056F8240057F817
:104AD0002410B0EB010B01D4594601E0CBF10001E9
:104AE000084603F09AF84FF08F41009002F0CEFE96
:104AF000814601A8005DC0B30849086803F096F834
:104B000083465946064802F0C1FE80460FE0000089
:104B10003C0100207B14AE3E1D5A843FD88A000819
:104B200000B04C45FE49404602F07AFE804601A89E
:104B3000005D401E10F0FF0001A90855F2D141466A
:104B4000484602F0A3FE83464FF07E5102F062FE1B
:104B500082462AF0004BF3488169584603F000F979
:104B600013D20120A04005430FE0FFE7ED480169A3
:104B7000484603F0EBF805D3EA484169484603F09C
:104B8000EFF802D20120A0400543641C032C9CDBFB
:104B9000284684E72DE9F04F93B005460C461746AA
:104BA00001208DF8200000208DF82100DE4A1268D7
:104BB000917CDD4A5268107808AB0222FDF793FF22
:104BC00020B14FF0FF3013B0BDE8F08FC82002F0E5
:104BD000BBFC00208DF82000D34A1268D17BD24A5A
:104BE0005268107808AB0122FDF77DFF10B14FF03D
:104BF000FF30E8E7CC4A12685179CB4A5268107806
:104C000008AB0122FDF76FFF10B14FF0FF30DAE77C
:104C1000C54A1268917CC44A5268107808AB0122D8
:104C2000FDF761FF10B14FF0FF30CCE7BE4A1268CC
:104C3000D17DBD4A5268107808AB0122FDF753FFC1
:104C400010B14FF0FF30BEE7B74A12681179B64A8B
:104C50005268107808AB0122FDF745FF10B14FF004
:104C6000FF30B0E70C208DF82000AF4A12681179B0
:104C7000AD4A5268107808AB0122FDF734FF10B13D
:104C80004FF0FF309FE70F2002F05EFCA648806ADD
:104C9000407A8DF82000A44A12689178A24A52689E
:104CA000107808AB0122FDF71EFF10B14FF0FF3066
:104CB00089E79D48806A007A8DF820009A4A126838
:104CC0005178994A5268107808AB0122FDF70BFF22
:104CD00010B14FF0FF3076E73FB19348806A807A99
:104CE00040F0E0008DF8200004E08F48806A807A70
:104CF0008DF820008C4A126891798B4A526810789E
:104D000008AB0122FDF7EFFE10B14FF0FF305AE77C
:104D10003FB18548806AC07A40F0E0008DF82000FD
:104D200003E08048C07A8DF820007F4A1268D1796C
:104D30007D4A5268107808AB0122FDF7D4FE10B10D
:104D40004FF0FF303FE717B1C82002F0FDFB4020D5
:104D50008DF82000744A12681179734A52681078ED
:104D600008AB0122FDF7BFFE10B14FF0FF302AE77C
:104D700078208DF820006C4A126851796A4A52688E
:104D8000107808AB0122FDF7AEFE10B14FF0FF30F6
:104D900019E76449888902F0D7FB00208DF82000CC
:104DA000614A12685179604A5268107808AB012252
:104DB000FDF799FE10B14FF0FF3004E75A4A126830
:104DC000917A594A5268107808AB0222FDF7ECFE3E
:104DD00010B14FF0FF30F6E69DF821009DF820104D
:104DE00040EA012006900C21069890FBF1F0C6B233
:104DF0000020A86068602860A06060602060079064
:104E000065E0494A1268D17A474A5268107808AB7F
:104E10000C22FDF7C9FE10B14FF0FF30D3E69DF82C
:104E200021009DF8201040EA012000B2ADF81000EA
:104E30009DF823009DF8221040EA012000B2ADF851
:104E400012009DF825009DF8241040EA012000B2D0
:104E5000ADF81400BDF91010206808442060BDF9B9
:104E60001210606808446060BDF91410A06808441E
:104E7000A0609DF827009DF8261040EA012000B2AE
:104E8000ADF808009DF829009DF8281040EA01209F
:104E900000B2ADF80A009DF82B009DF82A1040EAF8
:104EA000012000B2ADF80C00BDF9081028680844D4
:104EB0002860BDF90A10686808446860BDF90C10E4
:104EC000A8680844A8600798401CC0B207900798DB
:104ED000B04296DB134800680390D5F800804FEA93
:104EE000E870102212904046129902F000FCCDE9C1
:104EF00000010023039A02F0CDFB32460023CDE9E6
:104F0000040102F0C7FB2860064800680390D5F84A
:104F100004904FEAE970102211904846119905E07B
:104F200054E3853FD88A00083C01002002F0DFFBF3
:104F3000CDE900010023039A02F0ACFB32460023C6
:104F4000CDE9040102F0A6FB6860F948006803900F
:104F5000D5F808A04FEAEA70102210905046109938
:104F600002F0C5FBCDE900010023039A02F092FB99
:104F700032460023CDE9040102F08CFBA860EC4826
:104F800040680390D4F800B04FEAEB7010220F9005
:104F900058460F9902F0ABFBCDE900010023039ABC
:104FA00002F078FB32460023CDE9040102F072FBE7
:104FB0002060DF48406803906068C1171022CDE987
:104FC0000D1002F094FBCDE900010023039A02F0DA
:104FD00061FB32460023CDE9040102F05BFB606017
:104FE000D34840680390A068C1171022CDE90B1088
:104FF00002F07DFBCDE900010023039A02F04AFB99
:1050000032460023CDE9040102F044FBA060A06811
:10501000002804DDA068A0F58030A06003E0A0684F
:1050200000F58030A0600020CDE538B50446C148C9
:1050300090F82400A04201D1002038BD24B3BD481F
:1050400090F8250010B94FF0FF30F6E70020FEF78A
:105050004FFB0020FEF76EFCB649C88CFEF7CDFE74
:1050600000200090B349496808786B46012223214B
:10507000FDF739FD0121AF4880F824100120FEF72B
:1050800037FBFEF7FBFC13E00020FEF731FBA948DD
:10509000007C0090A749496808786B4601222321CB
:1050A000FDF721FD0021A34880F82410FEF7E6FC5F
:1050B0000020C2E72DE9F04F8DB083460F46022055
:1050C0000C909C4890F8240020B10020FFF7ADFF21
:1050D000012600E0002603A8FFF7D3F905A8FFF793
:1050E000F0F901A8FFF711FA02A8FFF733FA914887
:1050F00090F80AA004A8FFF787FA002407E000222E
:1051000039465846FFF746FD00B902E0641C022C00
:10511000F5DB00BF022C01D1002528E0002407E0C8
:10512000012206A909A8FFF735FD00B902E0641CB9
:10513000022CF5DB00BF022C01D1002517E006A9E7
:105140003846FFF74DFC00F0FF0809A95846FFF765
:1051500097FC00F0FF090025B9F1000F01D145F0DF
:105160000105B8F1000F01D145F0020500BFFF2095
:1051700070490872FF216F484172C1724FF6FF718A
:10518000C181FF218172017401210173BDF80C00FE
:10519000FEF7C1FE9DF81400FEF77BFEBDF804008B
:1051A000FEF77FFDBDF80800FEF727FE5046FEF72C
:1051B0005CFB9DF81000FEF73FFD16B10120FFF7E4
:1051C00034FF28460DB0BDE8F08FF8B504460D4613
:1051D000164616B94FF0FF30F8BD5648807A10B920
:1051E0004FF0FF30F8E720128DF80000E0B28DF8A4
:1051F00001009DF8010028444E49496849898842C8
:1052000002DD4FF0FF30E7E74A4A1268117E494A53
:10521000526810786B460222FDF765FC10B14FF022
:10522000FF30D9E7434A1268517D424A52681078EC
:105230003346EAB2FDF757FC10B14FF0FF30CBE731
:105240000020C9E7F8B504460D46164616B94FF0DA
:10525000FF30F8BD3748807A10B94FF0FF30F8E7DB
:1052600020128DF80000E0B28DF801009DF80100D9
:105270002844304949684989884202DD4FF0FF30AF
:10528000E7E72C4A1268117E2A4A526810786B466A
:105290000222FDF728FC10B14FF0FF30D9E7254A74
:1052A0001268517D234A526810783346EAB2FDF7FE
:1052B0007BFC10B14FF0FF30CBE70020C9E72DE9B0
:1052C000F04385B005460E4690469946194890F839
:1052D000250020B14FF0FF3005B0BDE8F08316B9CE
:1052E0004FF0FF30F8E7002428E0281B102801DDEC
:1052F000102000E0281B87B2321939462046FFF7FC
:1053000064FF10B14FF0FF30E6E701AA39462046AE
:10531000FFF798FF10B14FF0FF30DDE730193A4644
:1053200001A902F018FA38B16FF00100D4E70000CB
:10533000D88A00083C010020E01984B2AC42D4DBDA
:105340004FEA28208DF8000008F0FF008DF80100DA
:10535000924A1268917E914A526810786B460222F6
:10536000FDF7C1FB10B14FF0FF30B5E701218B48CD
:1053700080F82510A0F826900020ADE70146874868
:1053800090F8240008700020704702464FF0FF306C
:10539000704701464FF0FF307047F8B505460F469D
:1053A0001446002C70D0B5F5FF5F01DDFF2605E047
:1053B000202D01DA012601E0C5F3471607B90127C0
:1053C000282C02DD4FF0FF30F8BD7448407D28BB2B
:1053D000724890F8240038B10020FFF726FE012122
:1053E0006E4880F8201003E000216C4880F82010FF
:1053F0006A481630FFF745F868481830FFF761F83B
:1054000066481A30FFF781F864481C30FFF7A2F8AD
:105410006248817A81771F30FFF7F6F80020FEF7A7
:1054200067F90020FEF77CFC00208DF800005B4A45
:1054300012689178594A526810786B460122FDF73C
:1054400052FB10B14FF0FF30BEE740208DF8000056
:10545000524A1268D17B514A526810786B46012239
:10546000FDF741FB00B165E08DF800608DF801703B
:105470004A4A1268117A494A526810786B460222E9
:10548000FDF731FB08B155E047E0052002F05CF87C
:105490004248407A072101EBC000C0B28DF80000FD
:1054A0003E4A1268D1793D4A526810786B46012213
:1054B000FDF719FB00B13DE020208DF80000012C24
:1054C00003D100208DF801000EE0052C03DC012043
:1054D0008DF8010008E0142C03DC02208DF8010097
:1054E00002E003208DF801009DF80100072101EB87
:1054F0008010C0B28DF80100284A1268917C274ABA
:10550000526810786B460222FDF7EDFA00B111E007
:10551000012122484175002056E7204A1632002119
:1055200003E0505C00B105E0491C0C29F9D34FF0B1
:10553000FF3049E7FF2019490872FF2117484172DF
:10554000C1724FF6FF71C181FF2181720174012187
:1055500001730146887FFEF788F91049C88AFEF773
:10556000DAFC0E49087EFEF794FC0C49488BFEF7E6
:1055700098FB0A49888BFEF740FC0849C87FFEF774
:105580005BFB064890F8200010B10120FFF74DFDAD
:10559000002102484175002016E700003C01002070
:1055A00010B5C8234FF48062FB4940F6F630FFF790
:1055B00086FE10BD10B586B00446F8A000680390C2
:1055C000F7A000680290F7A000680190F6A00068BC
:1055D000009004F0030003A9085C8DF8140003A8F0
:1055E000C4F3C101405C8DF8150003A8C4F3811118
:1055F000405C8DF8160004F0030002A9085C8DF8E9
:10560000100002A8C4F3C101405C8DF8110002A88B
:10561000C4F38111405C8DF8120005AA032140F209
:105620002640FFF7D2FD18B14FF0FF3006B010BD95
:1056300004AA032140F22A40FFF7C7FD10B14FF042
:10564000FF30F3E7019805900098049014F0040FE0
:105650000BD09DF8140040F001008DF814009DF867
:10566000100040F001008DF8100014F0200F0BD056
:105670009DF8150040F001008DF815009DF811000F
:1056800040F001008DF8110014F4807F0BD09DF8DC
:10569000160040F001008DF816009DF8120040F051
:1056A00001008DF8120005AA03214FF48860FFF76E
:1056B0008CFD10B14FF0FF30B8E704AA032140F28F
:1056C0003140FFF782FD10B14FF0FF30AEE7B74831
:1056D00004810020AAE72DE9FF470446B34800896A
:1056E00000F0030054F820000190B048008910F049
:1056F000040F02D0019840420190AC480089C0F3E9
:10570000C10054F820000290A848008910F0200F32
:1057100002D0029840420290A4480089C0F3811050
:1057200054F820000390A148008910F4807F02D033
:105730000398404203909E49019880FB015A1E2223
:105740002846514601F0E2FF01909949029880FBFA
:1057500001671E223046394601F0D8FF0290944975
:10576000039880FB01891E224046494601F0CEFF86
:1057700003900198000E8DF800000198000C8DF840
:1057800001000198000A8DF802000198C0B28DF85E
:1057900003006A4604214FF47470FFF716FD20B130
:1057A0004FF0FF3004B0BDE8F0870298000E8DF88E
:1057B00000000298000C8DF801000298000A8DF894
:1057C00002000298C0B28DF803006A4604214FF42B
:1057D0007570FFF7FAFC10B14FF0FF30E2E7039865
:1057E000000E8DF800000398000C8DF8010003985E
:1057F000000A8DF802000398C0B28DF803006A46D3
:1058000004214FF47670FFF7E0FCCBE72DE9F04F71
:105810008BB0064601A8FEF7D0FEBDF8047000204C
:105820000F2208903846089901F061FF04460D46A2
:105830005E48008900F0030056F8200005905B48A0
:10584000008910F0040F02D0059840420590574897
:105850000089C0F3C10056F8200006905348008923
:1058600010F0200F02D00698404206904F48008961
:10587000C0F3811056F8200007904C48008910F4BE
:10588000807F02D00798404207900598C117A0FB7F
:10589000048201FB042100FB05101E220A904046F1
:1058A0000A9901F033FF05900698C117A0FB0492F6
:1058B00001FB042100FB051A1E224846514601F057
:1058C00025FF06900798C117A0FB04B201FB042135
:1058D00000FB05101E2209905846099901F016FF99
:1058E00007900598000E8DF808000598000C8DF8BB
:1058F00009000598000A8DF80A000598C0B28DF8D5
:105900000B000698000E8DF80C000698000C8DF820
:105910000D000698000A8DF80E000698C0B28DF8AA
:105920000F000798000E8DF810000798000C8DF8F6
:1059300011000798000A8DF812000798C0B28DF880
:10594000130002AA0C214FF42570FFF73EFC0BB0A8
:10595000BDE8F08F30B585B0044616A207CA02AB89
:1059600007C3C82C03DD4FF0FF3005B030BDC820A1
:1059700090FBF4F0401E85B2280A8DF80000E8B2D2
:105980008DF801006A46022140F21620FFF71DFC47
:10599000B0B14FF0FF30E8E74E8B00084CCD6C0003
:1059A0000CC92C003656760026466600840200207C
:1059B00009E3CA02FEF2ABC4AAF1DFDFBBAFDFDF4F
:1059C00002AA0C2140F6C120FFF7FFFB10B14FF0F7
:1059D000FF30CAE7F74884810020C6E70146F54852
:1059E00080890880002070472DE9FC4706460F4655
:1059F00016F0070F02D0B7F5C86F03DD4FF0FF3088
:105A0000BDE8FC87384602F011F98146EA4901F009
:105A10003DFF80466846FEF754FD9DF800000228D1
:105A200006D0042816D0082826D0102848D135E002
:105A30004FF08D41404601F0F3FE814602F021F91E
:105A400084B2DE49404601F0EBFE814602F019F9CE
:105A500085B238E04FF08C41404601F0E1FE8146CE
:105A600002F00FF984B2D649404601F0D9FE8146D2
:105A700002F007F985B226E04FF08B41404601F075
:105A8000CFFE814602F0FDF884B2CE49404601F0D7
:105A9000C7FE814602F0F5F885B214E04FF08A4166
:105AA000404601F0BDFE814602F0EBF884B2C649E3
:105AB000404601F0B5FE814602F0E3F885B202E00F
:105AC0004FF0FF309CE700BF20128DF80400E0B2D9
:105AD0008DF8050028128DF80600E8B28DF8070051
